{
  "address": "0xEcb06FF55122180212F5cAac3B63D25E91764602",
  "abi": [
    {
      "inputs": [
        {
          "internalType": "address",
          "name": "_tokenA",
          "type": "address"
        },
        {
          "internalType": "address",
          "name": "_tokenB",
          "type": "address"
        },
        {
          "internalType": "address",
          "name": "_tokenC",
          "type": "address"
        },
        {
          "internalType": "address",
          "name": "_tokenD",
          "type": "address"
        },
        {
          "internalType": "address",
          "name": "_merchant",
          "type": "address"
        },
        {
          "internalType": "address",
          "name": "_feeTo",
          "type": "address"
        },
        {
          "internalType": "address",
          "name": "_admin",
          "type": "address"
        }
      ],
      "stateMutability": "nonpayable",
      "type": "constructor"
    },
    {
      "anonymous": false,
      "inputs": [
        {
          "indexed": true,
          "internalType": "address",
          "name": "previousOwner",
          "type": "address"
        },
        {
          "indexed": true,
          "internalType": "address",
          "name": "newOwner",
          "type": "address"
        }
      ],
      "name": "OwnershipTransferred",
      "type": "event"
    },
    {
      "anonymous": false,
      "inputs": [
        {
          "indexed": true,
          "internalType": "bytes32",
          "name": "role",
          "type": "bytes32"
        },
        {
          "indexed": true,
          "internalType": "bytes32",
          "name": "previousAdminRole",
          "type": "bytes32"
        },
        {
          "indexed": true,
          "internalType": "bytes32",
          "name": "newAdminRole",
          "type": "bytes32"
        }
      ],
      "name": "RoleAdminChanged",
      "type": "event"
    },
    {
      "anonymous": false,
      "inputs": [
        {
          "indexed": true,
          "internalType": "bytes32",
          "name": "role",
          "type": "bytes32"
        },
        {
          "indexed": true,
          "internalType": "address",
          "name": "account",
          "type": "address"
        },
        {
          "indexed": true,
          "internalType": "address",
          "name": "sender",
          "type": "address"
        }
      ],
      "name": "RoleGranted",
      "type": "event"
    },
    {
      "anonymous": false,
      "inputs": [
        {
          "indexed": true,
          "internalType": "bytes32",
          "name": "role",
          "type": "bytes32"
        },
        {
          "indexed": true,
          "internalType": "address",
          "name": "account",
          "type": "address"
        },
        {
          "indexed": true,
          "internalType": "address",
          "name": "sender",
          "type": "address"
        }
      ],
      "name": "RoleRevoked",
      "type": "event"
    },
    {
      "inputs": [],
      "name": "ADMIN_ROLE",
      "outputs": [
        {
          "internalType": "bytes32",
          "name": "",
          "type": "bytes32"
        }
      ],
      "stateMutability": "view",
      "type": "function"
    },
    {
      "inputs": [],
      "name": "DEFAULT_ADMIN_ROLE",
      "outputs": [
        {
          "internalType": "bytes32",
          "name": "",
          "type": "bytes32"
        }
      ],
      "stateMutability": "view",
      "type": "function"
    },
    {
      "inputs": [],
      "name": "MERCHANT_ROLE",
      "outputs": [
        {
          "internalType": "bytes32",
          "name": "",
          "type": "bytes32"
        }
      ],
      "stateMutability": "view",
      "type": "function"
    },
    {
      "inputs": [],
      "name": "aBalance",
      "outputs": [
        {
          "internalType": "uint256",
          "name": "",
          "type": "uint256"
        }
      ],
      "stateMutability": "view",
      "type": "function"
    },
    {
      "inputs": [],
      "name": "bBalance",
      "outputs": [
        {
          "internalType": "uint256",
          "name": "",
          "type": "uint256"
        }
      ],
      "stateMutability": "view",
      "type": "function"
    },
    {
      "inputs": [],
      "name": "debug",
      "outputs": [
        {
          "internalType": "uint256",
          "name": "",
          "type": "uint256"
        }
      ],
      "stateMutability": "view",
      "type": "function"
    },
    {
      "inputs": [],
      "name": "feeTo",
      "outputs": [
        {
          "internalType": "address",
          "name": "",
          "type": "address"
        }
      ],
      "stateMutability": "view",
      "type": "function"
    },
    {
      "inputs": [],
      "name": "feerate",
      "outputs": [
        {
          "internalType": "uint256",
          "name": "",
          "type": "uint256"
        }
      ],
      "stateMutability": "view",
      "type": "function"
    },
    {
      "inputs": [],
      "name": "flushBNB",
      "outputs": [],
      "stateMutability": "nonpayable",
      "type": "function"
    },
    {
      "inputs": [
        {
          "internalType": "bytes32",
          "name": "role",
          "type": "bytes32"
        }
      ],
      "name": "getRoleAdmin",
      "outputs": [
        {
          "internalType": "bytes32",
          "name": "",
          "type": "bytes32"
        }
      ],
      "stateMutability": "view",
      "type": "function"
    },
    {
      "inputs": [
        {
          "internalType": "bytes32",
          "name": "role",
          "type": "bytes32"
        },
        {
          "internalType": "uint256",
          "name": "index",
          "type": "uint256"
        }
      ],
      "name": "getRoleMember",
      "outputs": [
        {
          "internalType": "address",
          "name": "",
          "type": "address"
        }
      ],
      "stateMutability": "view",
      "type": "function"
    },
    {
      "inputs": [
        {
          "internalType": "bytes32",
          "name": "role",
          "type": "bytes32"
        }
      ],
      "name": "getRoleMemberCount",
      "outputs": [
        {
          "internalType": "uint256",
          "name": "",
          "type": "uint256"
        }
      ],
      "stateMutability": "view",
      "type": "function"
    },
    {
      "inputs": [],
      "name": "giftrate",
      "outputs": [
        {
          "internalType": "uint256",
          "name": "",
          "type": "uint256"
        }
      ],
      "stateMutability": "view",
      "type": "function"
    },
    {
      "inputs": [
        {
          "internalType": "bytes32",
          "name": "role",
          "type": "bytes32"
        },
        {
          "internalType": "address",
          "name": "account",
          "type": "address"
        }
      ],
      "name": "grantRole",
      "outputs": [],
      "stateMutability": "nonpayable",
      "type": "function"
    },
    {
      "inputs": [
        {
          "internalType": "bytes32",
          "name": "role",
          "type": "bytes32"
        },
        {
          "internalType": "address",
          "name": "account",
          "type": "address"
        }
      ],
      "name": "hasRole",
      "outputs": [
        {
          "internalType": "bool",
          "name": "",
          "type": "bool"
        }
      ],
      "stateMutability": "view",
      "type": "function"
    },
    {
      "inputs": [
        {
          "internalType": "address",
          "name": "_merchant",
          "type": "address"
        }
      ],
      "name": "isMerchant",
      "outputs": [
        {
          "internalType": "bool",
          "name": "",
          "type": "bool"
        }
      ],
      "stateMutability": "view",
      "type": "function"
    },
    {
      "inputs": [],
      "name": "minTokenD",
      "outputs": [
        {
          "internalType": "uint256",
          "name": "",
          "type": "uint256"
        }
      ],
      "stateMutability": "view",
      "type": "function"
    },
    {
      "inputs": [],
      "name": "owner",
      "outputs": [
        {
          "internalType": "address",
          "name": "",
          "type": "address"
        }
      ],
      "stateMutability": "view",
      "type": "function"
    },
    {
      "inputs": [],
      "name": "ownerReclaimA",
      "outputs": [],
      "stateMutability": "nonpayable",
      "type": "function"
    },
    {
      "inputs": [],
      "name": "ownerReclaimB",
      "outputs": [],
      "stateMutability": "nonpayable",
      "type": "function"
    },
    {
      "inputs": [],
      "name": "ownerReclaimC",
      "outputs": [],
      "stateMutability": "nonpayable",
      "type": "function"
    },
    {
      "inputs": [],
      "name": "rate",
      "outputs": [
        {
          "internalType": "uint256",
          "name": "",
          "type": "uint256"
        }
      ],
      "stateMutability": "view",
      "type": "function"
    },
    {
      "inputs": [],
      "name": "renounceOwnership",
      "outputs": [],
      "stateMutability": "nonpayable",
      "type": "function"
    },
    {
      "inputs": [
        {
          "internalType": "bytes32",
          "name": "role",
          "type": "bytes32"
        },
        {
          "internalType": "address",
          "name": "account",
          "type": "address"
        }
      ],
      "name": "renounceRole",
      "outputs": [],
      "stateMutability": "nonpayable",
      "type": "function"
    },
    {
      "inputs": [
        {
          "internalType": "bytes32",
          "name": "role",
          "type": "bytes32"
        },
        {
          "internalType": "address",
          "name": "account",
          "type": "address"
        }
      ],
      "name": "revokeRole",
      "outputs": [],
      "stateMutability": "nonpayable",
      "type": "function"
    },
    {
      "inputs": [
        {
          "internalType": "uint256",
          "name": "_feerate",
          "type": "uint256"
        }
      ],
      "name": "setFeeRate",
      "outputs": [],
      "stateMutability": "nonpayable",
      "type": "function"
    },
    {
      "inputs": [
        {
          "internalType": "address",
          "name": "_feeTo",
          "type": "address"
        }
      ],
      "name": "setFeeTo",
      "outputs": [],
      "stateMutability": "nonpayable",
      "type": "function"
    },
    {
      "inputs": [
        {
          "internalType": "uint256",
          "name": "_giftrate",
          "type": "uint256"
        }
      ],
      "name": "setGifRate",
      "outputs": [],
      "stateMutability": "nonpayable",
      "type": "function"
    },
    {
      "inputs": [
        {
          "internalType": "uint256",
          "name": "_rate",
          "type": "uint256"
        }
      ],
      "name": "setRate",
      "outputs": [],
      "stateMutability": "nonpayable",
      "type": "function"
    },
    {
      "inputs": [
        {
          "internalType": "uint256",
          "name": "_minTokenD",
          "type": "uint256"
        }
      ],
      "name": "setminTokenD",
      "outputs": [],
      "stateMutability": "nonpayable",
      "type": "function"
    },
    {
      "inputs": [
        {
          "internalType": "uint256",
          "name": "_amount",
          "type": "uint256"
        }
      ],
      "name": "swap",
      "outputs": [],
      "stateMutability": "nonpayable",
      "type": "function"
    },
    {
      "inputs": [],
      "name": "tokenA",
      "outputs": [
        {
          "internalType": "contract IERC20",
          "name": "",
          "type": "address"
        }
      ],
      "stateMutability": "view",
      "type": "function"
    },
    {
      "inputs": [],
      "name": "tokenB",
      "outputs": [
        {
          "internalType": "contract IERC20",
          "name": "",
          "type": "address"
        }
      ],
      "stateMutability": "view",
      "type": "function"
    },
    {
      "inputs": [],
      "name": "tokenC",
      "outputs": [
        {
          "internalType": "contract IERC20",
          "name": "",
          "type": "address"
        }
      ],
      "stateMutability": "view",
      "type": "function"
    },
    {
      "inputs": [],
      "name": "tokenD",
      "outputs": [
        {
          "internalType": "contract IERC20",
          "name": "",
          "type": "address"
        }
      ],
      "stateMutability": "view",
      "type": "function"
    },
    {
      "inputs": [
        {
          "internalType": "address",
          "name": "newOwner",
          "type": "address"
        }
      ],
      "name": "transferOwnership",
      "outputs": [],
      "stateMutability": "nonpayable",
      "type": "function"
    }
  ],
  "transactionHash": "0xd98454e054866265b89c778b51d128cdaf3249c7b039b22be533b308670b7cd2",
  "args": [
    "0xEcafC0F1E5448868A08d89fa99e1d2a0694aEe23",
    "0x83c4CB8BEa9e049a0d8dF5F5ffC02563801E9e46",
    "0xfff3753d511cf17baf36de1e04a6eb8eebd73358",
    "0xfff3753d511cf17baf36de1e04a6eb8eebd73358",
    "0xBC0EE23C8A355f051a9309bce676F818d35743D1",
    "0xcD64a1fb76085F6184C1A8592f44DcF713EAD517",
    "0xBC0EE23C8A355f051a9309bce676F818d35743D1"
  ],
  "solcInputHash": "7ccc553b7edd361f17b34e784088ee8f",
  "bytecode": "0x6080604052600a600655600160075560016008556103e86009556001600b553480156200002b57600080fd5b5060405162001f0138038062001f01833981810160405260e08110156200005157600080fd5b508051602082015160408301516060840151608085015160a086015160c090960151949593949293919290919060006200008a6200019c565b600080546001600160a01b0319166001600160a01b0383169081178255604051929350917f8be0079c531659141344cd1fd0a4f28419497f9722a3daafe3b4186f6b6457e0908290a350600280546001600160a01b03199081166001600160a01b038a811691909117909255600380548216898416179055600480548216888416179055600580548216878416179055600a805490911691841691909117905562000137600082620001a0565b620001637fa49807205ce4d355092ef5a8a18f56e8913cf4a201fbe287825b095693c2177582620001a0565b6200018f7f3c4a2d89ed8b4cf4347fec87df1c38410f8fc538bf9fd64c10f2717bc0feff3684620001a0565b50505050505050620002b2565b3390565b620001ac8282620001b0565b5050565b6000828152600160209081526040909120620001d7918390620017396200022b821b17901c565b15620001ac57620001e76200019c565b6001600160a01b0316816001600160a01b0316837f2f8788117e7eff1d82e926ec794901d17c78024a50270940304540a733656f0d60405160405180910390a45050565b600062000242836001600160a01b0384166200024b565b90505b92915050565b60006200025983836200029a565b620002915750815460018181018455600084815260208082209093018490558454848252828601909352604090209190915562000245565b50600062000245565b60009081526001919091016020526040902054151590565b611c3f80620002c26000396000f3fe608060405234801561001057600080fd5b506004361061025c5760003560e01c806382fce00711610145578063ba33c748116100bd578063ca15c8731161008c578063f2fde38b11610071578063f2fde38b14610509578063f46901ed1461052f578063fe758dcc146105555761025c565b8063ca15c873146104c0578063d547741f146104dd5761025c565b8063ba33c748146104a0578063bd480923146104a8578063c483a308146104b0578063c90fb671146104b85761025c565b806392367a4911610114578063a217fddf116100f9578063a217fddf14610473578063b3d358391461047b578063b6502dd3146104835761025c565b806392367a491461043957806394b918de146104565761025c565b806382fce007146103da5780638da5cb5b146103e25780639010d07c146103ea57806391d148541461040d5761025c565b806334fcf437116101d85780635f64b55b116101a7578063664303461161018c57806366430346146103c2578063715018a6146103ca57806375b238fc146103d25761025c565b80635f64b55b146103b2578063600c94dd146103ba5761025c565b806334fcf4371461034457806336568abe1461036157806345596e2e1461038d578063588ee29b146103aa5761025c565b80631a2f71671161022f5780632aebb7bc116102145780632aebb7bc146103085780632c4e722e146103105780632f2ff15d146103185761025c565b80631a2f7167146102b1578063248a9ca3146102eb5761025c565b8063017e7e581461026157806309f80dd9146102855780630c907aba1461029f5780630fc63d10146102a9575b600080fd5b61026961055d565b604080516001600160a01b039092168252519081900360200190f35b61028d61056c565b60408051918252519081900360200190f35b6102a7610572565b005b610269610702565b6102d7600480360360208110156102c757600080fd5b50356001600160a01b0316610711565b604080519115158252519081900360200190f35b61028d6004803603602081101561030157600080fd5b5035610743565b6102a7610758565b61028d610810565b6102a76004803603604081101561032e57600080fd5b50803590602001356001600160a01b0316610816565b6102a76004803603602081101561035a57600080fd5b503561087e565b6102a76004803603604081101561037757600080fd5b50803590602001356001600160a01b03166108fe565b6102a7600480360360208110156103a357600080fd5b503561095f565b61028d6109df565b6102696109e5565b6102a76109f4565b610269610ac6565b6102a7610ad5565b61028d610ba0565b61028d610bc4565b610269610bca565b6102696004803603604081101561040057600080fd5b5080359060200135610bd9565b6102d76004803603604081101561042357600080fd5b50803590602001356001600160a01b0316610bf8565b6102a76004803603602081101561044f57600080fd5b5035610c10565b6102a76004803603602081101561046c57600080fd5b5035610c90565b61028d6112aa565b61028d6112af565b6102a76004803603602081101561049957600080fd5b50356112d3565b61028d611353565b61028d6113cf565b6102696113d5565b61028d6113e4565b61028d600480360360208110156104d657600080fd5b503561142f565b6102a7600480360360408110156104f357600080fd5b50803590602001356001600160a01b0316611446565b6102a76004803603602081101561051f57600080fd5b50356001600160a01b031661149f565b6102a76004803603602081101561054557600080fd5b50356001600160a01b03166115c0565b6102a761166a565b600a546001600160a01b031681565b60075481565b61059c7f3c4a2d89ed8b4cf4347fec87df1c38410f8fc538bf9fd64c10f2717bc0feff3633610bf8565b6105ed576040805162461bcd60e51b815260206004820152601860248201527f43616c6c6572206973206e6f742061206d65726368616e740000000000000000604482015290519081900360640190fd5b600254604080516370a0823160e01b815230600482015290516001600160a01b039092169163a9059cbb91339184916370a08231916024808301926020929190829003018186803b15801561064157600080fd5b505afa158015610655573d6000803e3d6000fd5b505050506040513d602081101561066b57600080fd5b5051604080517fffffffff0000000000000000000000000000000000000000000000000000000060e086901b1681526001600160a01b03909316600484015260248301919091525160448083019260209291908290030181600087803b1580156106d457600080fd5b505af11580156106e8573d6000803e3d6000fd5b505050506040513d60208110156106fe57600080fd5b5050565b6002546001600160a01b031681565b600061073d7f3c4a2d89ed8b4cf4347fec87df1c38410f8fc538bf9fd64c10f2717bc0feff3683610bf8565b92915050565b60009081526001602052604090206002015490565b6107827fa49807205ce4d355092ef5a8a18f56e8913cf4a201fbe287825b095693c2177533610bf8565b6107d3576040805162461bcd60e51b815260206004820152601d60248201527f43616c6c6572206973206e6f7420612061646d696e6973747261746f72000000604482015290519081900360640190fd5b60006107e047600161174e565b604051909150339082156108fc029083906000818181858888f193505050501580156106fe573d6000803e3d6000fd5b60065481565b600082815260016020526040902060020154610839906108346117ab565b610bf8565b6108745760405162461bcd60e51b815260040180806020018281038252602f815260200180611b35602f913960400191505060405180910390fd5b6106fe82826117af565b6108a87fa49807205ce4d355092ef5a8a18f56e8913cf4a201fbe287825b095693c2177533610bf8565b6108f9576040805162461bcd60e51b815260206004820152601d60248201527f43616c6c6572206973206e6f7420612061646d696e6973747261746f72000000604482015290519081900360640190fd5b600655565b6109066117ab565b6001600160a01b0316816001600160a01b0316146109555760405162461bcd60e51b815260040180806020018281038252602f815260200180611bdb602f913960400191505060405180910390fd5b6106fe8282611818565b6109897fa49807205ce4d355092ef5a8a18f56e8913cf4a201fbe287825b095693c2177533610bf8565b6109da576040805162461bcd60e51b815260206004820152601d60248201527f43616c6c6572206973206e6f7420612061646d696e6973747261746f72000000604482015290519081900360640190fd5b600755565b600b5481565b6003546001600160a01b031681565b610a1e7f3c4a2d89ed8b4cf4347fec87df1c38410f8fc538bf9fd64c10f2717bc0feff3633610bf8565b610a6f576040805162461bcd60e51b815260206004820152601860248201527f43616c6c6572206973206e6f742061206d65726368616e740000000000000000604482015290519081900360640190fd5b60048054604080516370a0823160e01b81523093810193909352516001600160a01b039091169163a9059cbb91339184916370a0823191602480820192602092909190829003018186803b15801561064157600080fd5b6005546001600160a01b031681565b610add6117ab565b6001600160a01b0316610aee610bca565b6001600160a01b031614610b49576040805162461bcd60e51b815260206004820181905260248201527f4f776e61626c653a2063616c6c6572206973206e6f7420746865206f776e6572604482015290519081900360640190fd5b600080546040516001600160a01b03909116907f8be0079c531659141344cd1fd0a4f28419497f9722a3daafe3b4186f6b6457e0908390a36000805473ffffffffffffffffffffffffffffffffffffffff19169055565b7fa49807205ce4d355092ef5a8a18f56e8913cf4a201fbe287825b095693c2177581565b60095481565b6000546001600160a01b031690565b6000828152600160205260408120610bf19083611881565b9392505050565b6000828152600160205260408120610bf1908361188d565b610c3a7fa49807205ce4d355092ef5a8a18f56e8913cf4a201fbe287825b095693c2177533610bf8565b610c8b576040805162461bcd60e51b815260206004820152601d60248201527f43616c6c6572206973206e6f7420612061646d696e6973747261746f72000000604482015290519081900360640190fd5b600955565b67016345785d8a00008111610cec576040805162461bcd60e51b815260206004820152600f60248201527f616d6f756e7420746f20736d616c6c0000000000000000000000000000000000604482015290519081900360640190fd5b600954600554604080516370a0823160e01b815233600482015290516001600160a01b03909216916370a0823191602480820192602092909190829003018186803b158015610d3a57600080fd5b505afa158015610d4e573d6000803e3d6000fd5b505050506040513d6020811015610d6457600080fd5b505111610db8576040805162461bcd60e51b815260206004820152601660248201527f73656e646572206d75737420686f6c6420546f6b656e00000000000000000000604482015290519081900360640190fd5b6000610dcf600654836118a290919063ffffffff16565b90506000610df36064610ded600754866118a290919063ffffffff16565b906118fb565b90506000610e116064610ded600854876118a290919063ffffffff16565b600354604080516370a0823160e01b8152306004820152905192935085926001600160a01b03909216916370a0823191602480820192602092909190829003018186803b158015610e6157600080fd5b505afa158015610e75573d6000803e3d6000fd5b505050506040513d6020811015610e8b57600080fd5b505111610edf576040805162461bcd60e51b815260206004820152601960248201527f696e73756666696369656e7420636f6e74726163742062616c00000000000000604482015290519081900360640190fd5b600254604080517f23b872dd0000000000000000000000000000000000000000000000000000000081523360048201523060248201526044810187905290516001600160a01b03909216916323b872dd916064808201926020929091908290030181600087803b158015610f5257600080fd5b505af1158015610f66573d6000803e3d6000fd5b505050506040513d6020811015610f7c57600080fd5b5051610fc1576040805162461bcd60e51b815260206004820152600f60248201526e1d1c985b9cd9995c8819985a5b1959608a1b604482015290519081900360640190fd5b6003546040805163a9059cbb60e01b81523360048201526024810186905290516001600160a01b039092169163a9059cbb916044808201926020929091908290030181600087803b15801561101557600080fd5b505af1158015611029573d6000803e3d6000fd5b505050506040513d602081101561103f57600080fd5b5051611084576040805162461bcd60e51b815260206004820152600f60248201526e1d1c985b9cd9995c8819985a5b1959608a1b604482015290519081900360640190fd5b6007541561115457600254600a546040805163a9059cbb60e01b81526001600160a01b039283166004820152602481018690529051919092169163a9059cbb9160448083019260209291908290030181600087803b1580156110e557600080fd5b505af11580156110f9573d6000803e3d6000fd5b505050506040513d602081101561110f57600080fd5b5051611154576040805162461bcd60e51b815260206004820152600f60248201526e1d1c985b9cd9995c8819985a5b1959608a1b604482015290519081900360640190fd5b6000811180156111db575060048054604080516370a0823160e01b815230938101939093525183926001600160a01b03909216916370a08231916024808301926020929190829003018186803b1580156111ad57600080fd5b505afa1580156111c1573d6000803e3d6000fd5b505050506040513d60208110156111d757600080fd5b5051115b156112a457600480546040805163a9059cbb60e01b8152339381019390935260248301849052516001600160a01b039091169163a9059cbb9160448083019260209291908290030181600087803b15801561123557600080fd5b505af1158015611249573d6000803e3d6000fd5b505050506040513d602081101561125f57600080fd5b50516112a4576040805162461bcd60e51b815260206004820152600f60248201526e1d1c985b9cd9995c8819985a5b1959608a1b604482015290519081900360640190fd5b50505050565b600081565b7f3c4a2d89ed8b4cf4347fec87df1c38410f8fc538bf9fd64c10f2717bc0feff3681565b6112fd7fa49807205ce4d355092ef5a8a18f56e8913cf4a201fbe287825b095693c2177533610bf8565b61134e576040805162461bcd60e51b815260206004820152601d60248201527f43616c6c6572206973206e6f7420612061646d696e6973747261746f72000000604482015290519081900360640190fd5b600855565b600354604080516370a0823160e01b815230600482015290516000926001600160a01b0316916370a08231916024808301926020929190829003018186803b15801561139e57600080fd5b505afa1580156113b2573d6000803e3d6000fd5b505050506040513d60208110156113c857600080fd5b5051905090565b60085481565b6004546001600160a01b031681565b600254604080516370a0823160e01b815230600482015290516000926001600160a01b0316916370a08231916024808301926020929190829003018186803b15801561139e57600080fd5b600081815260016020526040812061073d90611962565b600082815260016020526040902060020154611464906108346117ab565b6109555760405162461bcd60e51b8152600401808060200182810382526030815260200180611b8a6030913960400191505060405180910390fd5b6114a76117ab565b6001600160a01b03166114b8610bca565b6001600160a01b031614611513576040805162461bcd60e51b815260206004820181905260248201527f4f776e61626c653a2063616c6c6572206973206e6f7420746865206f776e6572604482015290519081900360640190fd5b6001600160a01b0381166115585760405162461bcd60e51b8152600401808060200182810382526026815260200180611b646026913960400191505060405180910390fd5b600080546040516001600160a01b03808516939216917f8be0079c531659141344cd1fd0a4f28419497f9722a3daafe3b4186f6b6457e091a36000805473ffffffffffffffffffffffffffffffffffffffff19166001600160a01b0392909216919091179055565b6115ea7fa49807205ce4d355092ef5a8a18f56e8913cf4a201fbe287825b095693c2177533610bf8565b61163b576040805162461bcd60e51b815260206004820152601d60248201527f43616c6c6572206973206e6f7420612061646d696e6973747261746f72000000604482015290519081900360640190fd5b600a805473ffffffffffffffffffffffffffffffffffffffff19166001600160a01b0392909216919091179055565b6116947f3c4a2d89ed8b4cf4347fec87df1c38410f8fc538bf9fd64c10f2717bc0feff3633610bf8565b6116e5576040805162461bcd60e51b815260206004820152601860248201527f43616c6c6572206973206e6f742061206d65726368616e740000000000000000604482015290519081900360640190fd5b600354604080516370a0823160e01b815230600482015290516001600160a01b039092169163a9059cbb91339184916370a08231916024808301926020929190829003018186803b15801561064157600080fd5b6000610bf1836001600160a01b03841661196d565b6000828211156117a5576040805162461bcd60e51b815260206004820152601e60248201527f536166654d6174683a207375627472616374696f6e206f766572666c6f770000604482015290519081900360640190fd5b50900390565b3390565b60008281526001602052604090206117c79082611739565b156106fe576117d46117ab565b6001600160a01b0316816001600160a01b0316837f2f8788117e7eff1d82e926ec794901d17c78024a50270940304540a733656f0d60405160405180910390a45050565b600082815260016020526040902061183090826119b7565b156106fe5761183d6117ab565b6001600160a01b0316816001600160a01b0316837ff6391f5c32d9c69d2a47ea670b442974b53935d1edc7fd64eb21e047a839171b60405160405180910390a45050565b6000610bf183836119cc565b6000610bf1836001600160a01b038416611a30565b6000826118b15750600061073d565b828202828482816118be57fe5b0414610bf15760405162461bcd60e51b8152600401808060200182810382526021815260200180611bba6021913960400191505060405180910390fd5b6000808211611951576040805162461bcd60e51b815260206004820152601a60248201527f536166654d6174683a206469766973696f6e206279207a65726f000000000000604482015290519081900360640190fd5b81838161195a57fe5b049392505050565b600061073d82611a48565b60006119798383611a30565b6119af5750815460018181018455600084815260208082209093018490558454848252828601909352604090209190915561073d565b50600061073d565b6000610bf1836001600160a01b038416611a4c565b81546000908210611a0e5760405162461bcd60e51b8152600401808060200182810382526022815260200180611b136022913960400191505060405180910390fd5b826000018281548110611a1d57fe5b9060005260206000200154905092915050565b60009081526001919091016020526040902054151590565b5490565b60008181526001830160205260408120548015611b085783546000198083019190810190600090879083908110611a7f57fe5b9060005260206000200154905080876000018481548110611a9c57fe5b600091825260208083209091019290925582815260018981019092526040902090840190558654879080611acc57fe5b6001900381819060005260206000200160009055905586600101600087815260200190815260200160002060009055600194505050505061073d565b600091505061073d56fe456e756d657261626c655365743a20696e646578206f7574206f6620626f756e6473416363657373436f6e74726f6c3a2073656e646572206d75737420626520616e2061646d696e20746f206772616e744f776e61626c653a206e6577206f776e657220697320746865207a65726f2061646472657373416363657373436f6e74726f6c3a2073656e646572206d75737420626520616e2061646d696e20746f207265766f6b65536166654d6174683a206d756c7469706c69636174696f6e206f766572666c6f77416363657373436f6e74726f6c3a2063616e206f6e6c792072656e6f756e636520726f6c657320666f722073656c66a264697066735822122073b8373aafa20cd6608c1308e9550aefb7381189d56fbb36c70e4aa7f2676db364736f6c634300060c0033",
  "devdoc": {
    "kind": "dev",
    "methods": {
      "getRoleAdmin(bytes32)": {
        "details": "Returns the admin role that controls `role`. See {grantRole} and {revokeRole}. To change a role's admin, use {_setRoleAdmin}."
      },
      "getRoleMember(bytes32,uint256)": {
        "details": "Returns one of the accounts that have `role`. `index` must be a value between 0 and {getRoleMemberCount}, non-inclusive. Role bearers are not sorted in any particular way, and their ordering may change at any point. WARNING: When using {getRoleMember} and {getRoleMemberCount}, make sure you perform all queries on the same block. See the following https://forum.openzeppelin.com/t/iterating-over-elements-on-enumerableset-in-openzeppelin-contracts/2296[forum post] for more information."
      },
      "getRoleMemberCount(bytes32)": {
        "details": "Returns the number of accounts that have `role`. Can be used together with {getRoleMember} to enumerate all bearers of a role."
      },
      "grantRole(bytes32,address)": {
        "details": "Grants `role` to `account`. If `account` had not been already granted `role`, emits a {RoleGranted} event. Requirements: - the caller must have ``role``'s admin role."
      },
      "hasRole(bytes32,address)": {
        "details": "Returns `true` if `account` has been granted `role`."
      },
      "owner()": {
        "details": "Returns the address of the current owner."
      },
      "renounceOwnership()": {
        "details": "Leaves the contract without owner. It will not be possible to call `onlyOwner` functions anymore. Can only be called by the current owner. NOTE: Renouncing ownership will leave the contract without an owner, thereby removing any functionality that is only available to the owner."
      },
      "renounceRole(bytes32,address)": {
        "details": "Revokes `role` from the calling account. Roles are often managed via {grantRole} and {revokeRole}: this function's purpose is to provide a mechanism for accounts to lose their privileges if they are compromised (such as when a trusted device is misplaced). If the calling account had been granted `role`, emits a {RoleRevoked} event. Requirements: - the caller must be `account`."
      },
      "revokeRole(bytes32,address)": {
        "details": "Revokes `role` from `account`. If `account` had been granted `role`, emits a {RoleRevoked} event. Requirements: - the caller must have ``role``'s admin role."
      },
      "transferOwnership(address)": {
        "details": "Transfers ownership of the contract to a new account (`newOwner`). Can only be called by the current owner."
      }
    },
    "version": 1
  },
  "userdoc": {
    "kind": "user",
    "methods": {},
    "version": 1
  },
  "storageLayout": {
    "storage": [
      {
        "astId": 290,
        "contract": "contracts/LaunchpadGift.sol:LaunchpadGift",
        "label": "_owner",
        "offset": 0,
        "slot": "0",
        "type": "t_address"
      },
      {
        "astId": 22,
        "contract": "contracts/LaunchpadGift.sol:LaunchpadGift",
        "label": "_roles",
        "offset": 0,
        "slot": "1",
        "type": "t_mapping(t_bytes32,t_struct(RoleData)18_storage)"
      },
      {
        "astId": 2498,
        "contract": "contracts/LaunchpadGift.sol:LaunchpadGift",
        "label": "tokenA",
        "offset": 0,
        "slot": "2",
        "type": "t_contract(IERC20)1328"
      },
      {
        "astId": 2500,
        "contract": "contracts/LaunchpadGift.sol:LaunchpadGift",
        "label": "tokenB",
        "offset": 0,
        "slot": "3",
        "type": "t_contract(IERC20)1328"
      },
      {
        "astId": 2502,
        "contract": "contracts/LaunchpadGift.sol:LaunchpadGift",
        "label": "tokenC",
        "offset": 0,
        "slot": "4",
        "type": "t_contract(IERC20)1328"
      },
      {
        "astId": 2504,
        "contract": "contracts/LaunchpadGift.sol:LaunchpadGift",
        "label": "tokenD",
        "offset": 0,
        "slot": "5",
        "type": "t_contract(IERC20)1328"
      },
      {
        "astId": 2507,
        "contract": "contracts/LaunchpadGift.sol:LaunchpadGift",
        "label": "rate",
        "offset": 0,
        "slot": "6",
        "type": "t_uint256"
      },
      {
        "astId": 2510,
        "contract": "contracts/LaunchpadGift.sol:LaunchpadGift",
        "label": "feerate",
        "offset": 0,
        "slot": "7",
        "type": "t_uint256"
      },
      {
        "astId": 2513,
        "contract": "contracts/LaunchpadGift.sol:LaunchpadGift",
        "label": "giftrate",
        "offset": 0,
        "slot": "8",
        "type": "t_uint256"
      },
      {
        "astId": 2516,
        "contract": "contracts/LaunchpadGift.sol:LaunchpadGift",
        "label": "minTokenD",
        "offset": 0,
        "slot": "9",
        "type": "t_uint256"
      },
      {
        "astId": 2518,
        "contract": "contracts/LaunchpadGift.sol:LaunchpadGift",
        "label": "feeTo",
        "offset": 0,
        "slot": "10",
        "type": "t_address"
      },
      {
        "astId": 2521,
        "contract": "contracts/LaunchpadGift.sol:LaunchpadGift",
        "label": "debug",
        "offset": 0,
        "slot": "11",
        "type": "t_uint256"
      }
    ],
    "types": {
      "t_address": {
        "encoding": "inplace",
        "label": "address",
        "numberOfBytes": "20"
      },
      "t_array(t_bytes32)dyn_storage": {
        "base": "t_bytes32",
        "encoding": "dynamic_array",
        "label": "bytes32[]",
        "numberOfBytes": "32"
      },
      "t_bytes32": {
        "encoding": "inplace",
        "label": "bytes32",
        "numberOfBytes": "32"
      },
      "t_contract(IERC20)1328": {
        "encoding": "inplace",
        "label": "contract IERC20",
        "numberOfBytes": "20"
      },
      "t_mapping(t_bytes32,t_struct(RoleData)18_storage)": {
        "encoding": "mapping",
        "key": "t_bytes32",
        "label": "mapping(bytes32 => struct AccessControl.RoleData)",
        "numberOfBytes": "32",
        "value": "t_struct(RoleData)18_storage"
      },
      "t_mapping(t_bytes32,t_uint256)": {
        "encoding": "mapping",
        "key": "t_bytes32",
        "label": "mapping(bytes32 => uint256)",
        "numberOfBytes": "32",
        "value": "t_uint256"
      },
      "t_struct(AddressSet)1923_storage": {
        "encoding": "inplace",
        "label": "struct EnumerableSet.AddressSet",
        "members": [
          {
            "astId": 1922,
            "contract": "contracts/LaunchpadGift.sol:LaunchpadGift",
            "label": "_inner",
            "offset": 0,
            "slot": "0",
            "type": "t_struct(Set)1658_storage"
          }
        ],
        "numberOfBytes": "64"
      },
      "t_struct(RoleData)18_storage": {
        "encoding": "inplace",
        "label": "struct AccessControl.RoleData",
        "members": [
          {
            "astId": 15,
            "contract": "contracts/LaunchpadGift.sol:LaunchpadGift",
            "label": "members",
            "offset": 0,
            "slot": "0",
            "type": "t_struct(AddressSet)1923_storage"
          },
          {
            "astId": 17,
            "contract": "contracts/LaunchpadGift.sol:LaunchpadGift",
            "label": "adminRole",
            "offset": 0,
            "slot": "2",
            "type": "t_bytes32"
          }
        ],
        "numberOfBytes": "96"
      },
      "t_struct(Set)1658_storage": {
        "encoding": "inplace",
        "label": "struct EnumerableSet.Set",
        "members": [
          {
            "astId": 1653,
            "contract": "contracts/LaunchpadGift.sol:LaunchpadGift",
            "label": "_values",
            "offset": 0,
            "slot": "0",
            "type": "t_array(t_bytes32)dyn_storage"
          },
          {
            "astId": 1657,
            "contract": "contracts/LaunchpadGift.sol:LaunchpadGift",
            "label": "_indexes",
            "offset": 0,
            "slot": "1",
            "type": "t_mapping(t_bytes32,t_uint256)"
          }
        ],
        "numberOfBytes": "64"
      },
      "t_uint256": {
        "encoding": "inplace",
        "label": "uint256",
        "numberOfBytes": "32"
      }
    }
  }
}