{
  "address": "0x2302f122E5D0B2F81f126D230140f7562194949d",
  "abi": [
    {
      "inputs": [
        {
          "internalType": "address",
          "name": "_tokenA",
          "type": "address"
        },
        {
          "internalType": "address",
          "name": "_tokenB",
          "type": "address"
        },
        {
          "internalType": "address",
          "name": "_payTo",
          "type": "address"
        }
      ],
      "stateMutability": "nonpayable",
      "type": "constructor"
    },
    {
      "anonymous": false,
      "inputs": [
        {
          "indexed": true,
          "internalType": "address",
          "name": "previousOwner",
          "type": "address"
        },
        {
          "indexed": true,
          "internalType": "address",
          "name": "newOwner",
          "type": "address"
        }
      ],
      "name": "OwnershipTransferred",
      "type": "event"
    },
    {
      "anonymous": false,
      "inputs": [
        {
          "indexed": true,
          "internalType": "bytes32",
          "name": "role",
          "type": "bytes32"
        },
        {
          "indexed": true,
          "internalType": "bytes32",
          "name": "previousAdminRole",
          "type": "bytes32"
        },
        {
          "indexed": true,
          "internalType": "bytes32",
          "name": "newAdminRole",
          "type": "bytes32"
        }
      ],
      "name": "RoleAdminChanged",
      "type": "event"
    },
    {
      "anonymous": false,
      "inputs": [
        {
          "indexed": true,
          "internalType": "bytes32",
          "name": "role",
          "type": "bytes32"
        },
        {
          "indexed": true,
          "internalType": "address",
          "name": "account",
          "type": "address"
        },
        {
          "indexed": true,
          "internalType": "address",
          "name": "sender",
          "type": "address"
        }
      ],
      "name": "RoleGranted",
      "type": "event"
    },
    {
      "anonymous": false,
      "inputs": [
        {
          "indexed": true,
          "internalType": "bytes32",
          "name": "role",
          "type": "bytes32"
        },
        {
          "indexed": true,
          "internalType": "address",
          "name": "account",
          "type": "address"
        },
        {
          "indexed": true,
          "internalType": "address",
          "name": "sender",
          "type": "address"
        }
      ],
      "name": "RoleRevoked",
      "type": "event"
    },
    {
      "inputs": [],
      "name": "ADMIN_ROLE",
      "outputs": [
        {
          "internalType": "bytes32",
          "name": "",
          "type": "bytes32"
        }
      ],
      "stateMutability": "view",
      "type": "function"
    },
    {
      "inputs": [],
      "name": "DEFAULT_ADMIN_ROLE",
      "outputs": [
        {
          "internalType": "bytes32",
          "name": "",
          "type": "bytes32"
        }
      ],
      "stateMutability": "view",
      "type": "function"
    },
    {
      "inputs": [],
      "name": "aBalance",
      "outputs": [
        {
          "internalType": "uint256",
          "name": "",
          "type": "uint256"
        }
      ],
      "stateMutability": "view",
      "type": "function"
    },
    {
      "inputs": [],
      "name": "bBalance",
      "outputs": [
        {
          "internalType": "uint256",
          "name": "",
          "type": "uint256"
        }
      ],
      "stateMutability": "view",
      "type": "function"
    },
    {
      "inputs": [],
      "name": "feeTo",
      "outputs": [
        {
          "internalType": "address",
          "name": "",
          "type": "address"
        }
      ],
      "stateMutability": "view",
      "type": "function"
    },
    {
      "inputs": [],
      "name": "feerate",
      "outputs": [
        {
          "internalType": "uint256",
          "name": "",
          "type": "uint256"
        }
      ],
      "stateMutability": "view",
      "type": "function"
    },
    {
      "inputs": [],
      "name": "flushBNB",
      "outputs": [],
      "stateMutability": "nonpayable",
      "type": "function"
    },
    {
      "inputs": [
        {
          "internalType": "bytes32",
          "name": "role",
          "type": "bytes32"
        }
      ],
      "name": "getRoleAdmin",
      "outputs": [
        {
          "internalType": "bytes32",
          "name": "",
          "type": "bytes32"
        }
      ],
      "stateMutability": "view",
      "type": "function"
    },
    {
      "inputs": [
        {
          "internalType": "bytes32",
          "name": "role",
          "type": "bytes32"
        },
        {
          "internalType": "uint256",
          "name": "index",
          "type": "uint256"
        }
      ],
      "name": "getRoleMember",
      "outputs": [
        {
          "internalType": "address",
          "name": "",
          "type": "address"
        }
      ],
      "stateMutability": "view",
      "type": "function"
    },
    {
      "inputs": [
        {
          "internalType": "bytes32",
          "name": "role",
          "type": "bytes32"
        }
      ],
      "name": "getRoleMemberCount",
      "outputs": [
        {
          "internalType": "uint256",
          "name": "",
          "type": "uint256"
        }
      ],
      "stateMutability": "view",
      "type": "function"
    },
    {
      "inputs": [
        {
          "internalType": "bytes32",
          "name": "role",
          "type": "bytes32"
        },
        {
          "internalType": "address",
          "name": "account",
          "type": "address"
        }
      ],
      "name": "grantRole",
      "outputs": [],
      "stateMutability": "nonpayable",
      "type": "function"
    },
    {
      "inputs": [
        {
          "internalType": "bytes32",
          "name": "role",
          "type": "bytes32"
        },
        {
          "internalType": "address",
          "name": "account",
          "type": "address"
        }
      ],
      "name": "hasRole",
      "outputs": [
        {
          "internalType": "bool",
          "name": "",
          "type": "bool"
        }
      ],
      "stateMutability": "view",
      "type": "function"
    },
    {
      "inputs": [],
      "name": "owner",
      "outputs": [
        {
          "internalType": "address",
          "name": "",
          "type": "address"
        }
      ],
      "stateMutability": "view",
      "type": "function"
    },
    {
      "inputs": [],
      "name": "ownerReclaimA",
      "outputs": [],
      "stateMutability": "nonpayable",
      "type": "function"
    },
    {
      "inputs": [],
      "name": "ownerReclaimB",
      "outputs": [],
      "stateMutability": "nonpayable",
      "type": "function"
    },
    {
      "inputs": [],
      "name": "payTo",
      "outputs": [
        {
          "internalType": "address",
          "name": "",
          "type": "address"
        }
      ],
      "stateMutability": "view",
      "type": "function"
    },
    {
      "inputs": [],
      "name": "rate",
      "outputs": [
        {
          "internalType": "uint256",
          "name": "",
          "type": "uint256"
        }
      ],
      "stateMutability": "view",
      "type": "function"
    },
    {
      "inputs": [],
      "name": "renounceOwnership",
      "outputs": [],
      "stateMutability": "nonpayable",
      "type": "function"
    },
    {
      "inputs": [
        {
          "internalType": "bytes32",
          "name": "role",
          "type": "bytes32"
        },
        {
          "internalType": "address",
          "name": "account",
          "type": "address"
        }
      ],
      "name": "renounceRole",
      "outputs": [],
      "stateMutability": "nonpayable",
      "type": "function"
    },
    {
      "inputs": [
        {
          "internalType": "bytes32",
          "name": "role",
          "type": "bytes32"
        },
        {
          "internalType": "address",
          "name": "account",
          "type": "address"
        }
      ],
      "name": "revokeRole",
      "outputs": [],
      "stateMutability": "nonpayable",
      "type": "function"
    },
    {
      "inputs": [
        {
          "internalType": "address",
          "name": "_feeTo",
          "type": "address"
        }
      ],
      "name": "setFeeTo",
      "outputs": [],
      "stateMutability": "nonpayable",
      "type": "function"
    },
    {
      "inputs": [
        {
          "internalType": "uint256",
          "name": "_rate",
          "type": "uint256"
        }
      ],
      "name": "setRate",
      "outputs": [],
      "stateMutability": "nonpayable",
      "type": "function"
    },
    {
      "inputs": [
        {
          "internalType": "uint256",
          "name": "_amount",
          "type": "uint256"
        }
      ],
      "name": "swap",
      "outputs": [],
      "stateMutability": "nonpayable",
      "type": "function"
    },
    {
      "inputs": [],
      "name": "tokenA",
      "outputs": [
        {
          "internalType": "contract IERC20",
          "name": "",
          "type": "address"
        }
      ],
      "stateMutability": "view",
      "type": "function"
    },
    {
      "inputs": [],
      "name": "tokenB",
      "outputs": [
        {
          "internalType": "contract IERC20",
          "name": "",
          "type": "address"
        }
      ],
      "stateMutability": "view",
      "type": "function"
    },
    {
      "inputs": [
        {
          "internalType": "address",
          "name": "newOwner",
          "type": "address"
        }
      ],
      "name": "transferOwnership",
      "outputs": [],
      "stateMutability": "nonpayable",
      "type": "function"
    }
  ],
  "transactionHash": "0x877c1b8f99925b47295b313bab83eb25c132e240f5d2423aeeafaf39824a69e6",
  "args": [
    "0xf2b4f7adb0bc8fa6aa8e8efa52101a341b810212",
    "0xebec0fb5bedcd75800d40b07cca7978dba14bf5a",
    "0xD2aa195D683cb782685EBdaC2B76788349eF6579"
  ],
  "solcInputHash": "e792ed528869bc1c55f46edba779eb36",
  "bytecode": "0x6080604052600a60045560036005553480156200001b57600080fd5b50604051620017c0380380620017c0833981810160405260608110156200004157600080fd5b50805160208201516040909201519091906000620000676001600160e01b036200014116565b600080546001600160a01b0319166001600160a01b0383169081178255604051929350917f8be0079c531659141344cd1fd0a4f28419497f9722a3daafe3b4186f6b6457e0908290a350600280546001600160a01b038086166001600160a01b031992831617909255600380548584169083161790556007805492841692909116919091179055620001046000336001600160e01b036200014516565b604080516941444d494e5f524f4c4560b01b8152905190819003600a0190206200013890336001600160e01b036200014516565b5050506200027b565b3390565b6200015a82826001600160e01b036200015e16565b5050565b6000828152600160209081526040909120620001859183906200124e620001e2821b17901c565b156200015a576200019e6001600160e01b036200014116565b6001600160a01b0316816001600160a01b0316837f2f8788117e7eff1d82e926ec794901d17c78024a50270940304540a733656f0d60405160405180910390a45050565b600062000202836001600160a01b0384166001600160e01b036200020b16565b90505b92915050565b60006200022283836001600160e01b036200026316565b6200025a5750815460018181018455600084815260208082209093018490558454848252828601909352604090209190915562000205565b50600062000205565b60009081526001919091016020526040902054151590565b611535806200028b6000396000f3fe608060405234801561001057600080fd5b506004361061018e5760003560e01c80638da5cb5b116100de578063ba33c74811610097578063d547741f11610071578063d547741f14610362578063f2fde38b1461038e578063f46901ed146103b4578063fe758dcc146103da5761018e565b8063ba33c74814610335578063c90fb6711461033d578063ca15c873146103455761018e565b80638da5cb5b1461029d5780639010d07c146102a557806391d14854146102c857806394b918de14610308578063a217fddf14610325578063b837c58e1461032d5761018e565b80632c4e722e1161014b57806336568abe1161012557806336568abe146102595780635f64b55b14610285578063715018a61461028d57806375b238fc146102955761018e565b80632c4e722e146102085780632f2ff15d1461021057806334fcf4371461023c5761018e565b8063017e7e581461019357806309f80dd9146101b75780630c907aba146101d15780630fc63d10146101db578063248a9ca3146101e35780632aebb7bc14610200575b600080fd5b61019b6103e2565b604080516001600160a01b039092168252519081900360200190f35b6101bf6103f1565b60408051918252519081900360200190f35b6101d96103f7565b005b61019b61054c565b6101bf600480360360208110156101f957600080fd5b503561055b565b6101d9610570565b6101bf61062d565b6101d96004803603604081101561022657600080fd5b50803590602001356001600160a01b0316610633565b6101d96004803603602081101561025257600080fd5b503561069b565b6101d96004803603604081101561026f57600080fd5b50803590602001356001600160a01b031661071a565b61019b61077b565b6101d961078a565b6101bf610848565b61019b61086a565b61019b600480360360408110156102bb57600080fd5b5080359060200135610879565b6102f4600480360360408110156102de57600080fd5b50803590602001356001600160a01b03166108a0565b604080519115158252519081900360200190f35b6101d96004803603602081101561031e57600080fd5b50356108be565b6101bf610c7c565b61019b610c81565b6101bf610c90565b6101bf610d0c565b6101bf6004803603602081101561035b57600080fd5b5035610d57565b6101d96004803603604081101561037857600080fd5b50803590602001356001600160a01b0316610d6e565b6101d9600480360360208110156103a457600080fd5b50356001600160a01b0316610dc7565b6101d9600480360360208110156103ca57600080fd5b50356001600160a01b0316610edb565b6101d9610f77565b6006546001600160a01b031681565b60055481565b6007546001600160a01b031633141561044f576040805162461bcd60e51b815260206004820152601560248201527443616c6c6572206973206e6f74206120506179656560581b604482015290519081900360640190fd5b600254604080516370a0823160e01b815230600482015290516001600160a01b039092169163a9059cbb91339184916370a08231916024808301926020929190829003018186803b1580156104a357600080fd5b505afa1580156104b7573d6000803e3d6000fd5b505050506040513d60208110156104cd57600080fd5b5051604080516001600160e01b031960e086901b1681526001600160a01b03909316600484015260248301919091525160448083019260209291908290030181600087803b15801561051e57600080fd5b505af1158015610532573d6000803e3d6000fd5b505050506040513d602081101561054857600080fd5b5050565b6002546001600160a01b031681565b60009081526001602052604090206002015490565b604080516941444d494e5f524f4c4560b01b8152905190819003600a01902061059990336108a0565b6105ea576040805162461bcd60e51b815260206004820152601d60248201527f43616c6c6572206973206e6f7420612061646d696e6973747261746f72000000604482015290519081900360640190fd5b60006105fd47600163ffffffff61102316565b604051909150339082156108fc029083906000818181858888f19350505050158015610548573d6000803e3d6000fd5b60045481565b60008281526001602052604090206002015461065690610651611080565b6108a0565b6106915760405162461bcd60e51b815260040180806020018281038252602f81526020018061142b602f913960400191505060405180910390fd5b6105488282611084565b604080516941444d494e5f524f4c4560b01b8152905190819003600a0190206106c490336108a0565b610715576040805162461bcd60e51b815260206004820152601d60248201527f43616c6c6572206973206e6f7420612061646d696e6973747261746f72000000604482015290519081900360640190fd5b600455565b610722611080565b6001600160a01b0316816001600160a01b0316146107715760405162461bcd60e51b815260040180806020018281038252602f8152602001806114d1602f913960400191505060405180910390fd5b61054882826110f3565b6003546001600160a01b031681565b610792611080565b6001600160a01b03166107a361086a565b6001600160a01b0316146107fe576040805162461bcd60e51b815260206004820181905260248201527f4f776e61626c653a2063616c6c6572206973206e6f7420746865206f776e6572604482015290519081900360640190fd5b600080546040516001600160a01b03909116907f8be0079c531659141344cd1fd0a4f28419497f9722a3daafe3b4186f6b6457e0908390a3600080546001600160a01b0319169055565b604080516941444d494e5f524f4c4560b01b8152905190819003600a01902081565b6000546001600160a01b031690565b6000828152600160205260408120610897908363ffffffff61116216565b90505b92915050565b6000828152600160205260408120610897908363ffffffff61116e16565b67016345785d8a0000811161090c576040805162461bcd60e51b815260206004820152600f60248201526e185b5bdd5b9d081d1bc81cdb585b1b608a1b604482015290519081900360640190fd5b60006109236004548361118390919063ffffffff16565b9050600061094d60646109416005548661118390919063ffffffff16565b9063ffffffff6111dc16565b600354604080516370a0823160e01b8152306004820152905192935084926001600160a01b03909216916370a0823191602480820192602092909190829003018186803b15801561099d57600080fd5b505afa1580156109b1573d6000803e3d6000fd5b505050506040513d60208110156109c757600080fd5b505111610a1b576040805162461bcd60e51b815260206004820152601960248201527f696e73756666696369656e7420636f6e74726163742062616c00000000000000604482015290519081900360640190fd5b600254604080516323b872dd60e01b81523360048201523060248201526044810186905290516001600160a01b03909216916323b872dd916064808201926020929091908290030181600087803b158015610a7557600080fd5b505af1158015610a89573d6000803e3d6000fd5b505050506040513d6020811015610a9f57600080fd5b5051610ae4576040805162461bcd60e51b815260206004820152600f60248201526e1d1c985b9cd9995c8819985a5b1959608a1b604482015290519081900360640190fd5b6003546040805163a9059cbb60e01b81523360048201526024810185905290516001600160a01b039092169163a9059cbb916044808201926020929091908290030181600087803b158015610b3857600080fd5b505af1158015610b4c573d6000803e3d6000fd5b505050506040513d6020811015610b6257600080fd5b5051610ba7576040805162461bcd60e51b815260206004820152600f60248201526e1d1c985b9cd9995c8819985a5b1959608a1b604482015290519081900360640190fd5b60055415610c77576002546006546040805163a9059cbb60e01b81526001600160a01b039283166004820152602481018590529051919092169163a9059cbb9160448083019260209291908290030181600087803b158015610c0857600080fd5b505af1158015610c1c573d6000803e3d6000fd5b505050506040513d6020811015610c3257600080fd5b5051610c77576040805162461bcd60e51b815260206004820152600f60248201526e1d1c985b9cd9995c8819985a5b1959608a1b604482015290519081900360640190fd5b505050565b600081565b6007546001600160a01b031681565b600354604080516370a0823160e01b815230600482015290516000926001600160a01b0316916370a08231916024808301926020929190829003018186803b158015610cdb57600080fd5b505afa158015610cef573d6000803e3d6000fd5b505050506040513d6020811015610d0557600080fd5b5051905090565b600254604080516370a0823160e01b815230600482015290516000926001600160a01b0316916370a08231916024808301926020929190829003018186803b158015610cdb57600080fd5b600081815260016020526040812061089a90611243565b600082815260016020526040902060020154610d8c90610651611080565b6107715760405162461bcd60e51b81526004018080602001828103825260308152602001806114806030913960400191505060405180910390fd5b610dcf611080565b6001600160a01b0316610de061086a565b6001600160a01b031614610e3b576040805162461bcd60e51b815260206004820181905260248201527f4f776e61626c653a2063616c6c6572206973206e6f7420746865206f776e6572604482015290519081900360640190fd5b6001600160a01b038116610e805760405162461bcd60e51b815260040180806020018281038252602681526020018061145a6026913960400191505060405180910390fd5b600080546040516001600160a01b03808516939216917f8be0079c531659141344cd1fd0a4f28419497f9722a3daafe3b4186f6b6457e091a3600080546001600160a01b0319166001600160a01b0392909216919091179055565b604080516941444d494e5f524f4c4560b01b8152905190819003600a019020610f0490336108a0565b610f55576040805162461bcd60e51b815260206004820152601d60248201527f43616c6c6572206973206e6f7420612061646d696e6973747261746f72000000604482015290519081900360640190fd5b600680546001600160a01b0319166001600160a01b0392909216919091179055565b6007546001600160a01b0316331415610fcf576040805162461bcd60e51b815260206004820152601560248201527443616c6c6572206973206e6f74206120506179656560581b604482015290519081900360640190fd5b600354604080516370a0823160e01b815230600482015290516001600160a01b039092169163a9059cbb91339184916370a08231916024808301926020929190829003018186803b1580156104a357600080fd5b60008282111561107a576040805162461bcd60e51b815260206004820152601e60248201527f536166654d6174683a207375627472616374696f6e206f766572666c6f770000604482015290519081900360640190fd5b50900390565b3390565b60008281526001602052604090206110a2908263ffffffff61124e16565b15610548576110af611080565b6001600160a01b0316816001600160a01b0316837f2f8788117e7eff1d82e926ec794901d17c78024a50270940304540a733656f0d60405160405180910390a45050565b6000828152600160205260409020611111908263ffffffff61126316565b156105485761111e611080565b6001600160a01b0316816001600160a01b0316837ff6391f5c32d9c69d2a47ea670b442974b53935d1edc7fd64eb21e047a839171b60405160405180910390a45050565b60006108978383611278565b6000610897836001600160a01b0384166112dc565b6000826111925750600061089a565b8282028284828161119f57fe5b04146108975760405162461bcd60e51b81526004018080602001828103825260218152602001806114b06021913960400191505060405180910390fd5b6000808211611232576040805162461bcd60e51b815260206004820152601a60248201527f536166654d6174683a206469766973696f6e206279207a65726f000000000000604482015290519081900360640190fd5b81838161123b57fe5b049392505050565b600061089a826112f4565b6000610897836001600160a01b0384166112f8565b6000610897836001600160a01b038416611342565b815460009082106112ba5760405162461bcd60e51b81526004018080602001828103825260228152602001806114096022913960400191505060405180910390fd5b8260000182815481106112c957fe5b9060005260206000200154905092915050565b60009081526001919091016020526040902054151590565b5490565b600061130483836112dc565b61133a5750815460018181018455600084815260208082209093018490558454848252828601909352604090209190915561089a565b50600061089a565b600081815260018301602052604081205480156113fe578354600019808301919081019060009087908390811061137557fe5b906000526020600020015490508087600001848154811061139257fe5b6000918252602080832090910192909255828152600189810190925260409020908401905586548790806113c257fe5b6001900381819060005260206000200160009055905586600101600087815260200190815260200160002060009055600194505050505061089a565b600091505061089a56fe456e756d657261626c655365743a20696e646578206f7574206f6620626f756e6473416363657373436f6e74726f6c3a2073656e646572206d75737420626520616e2061646d696e20746f206772616e744f776e61626c653a206e6577206f776e657220697320746865207a65726f2061646472657373416363657373436f6e74726f6c3a2073656e646572206d75737420626520616e2061646d696e20746f207265766f6b65536166654d6174683a206d756c7469706c69636174696f6e206f766572666c6f77416363657373436f6e74726f6c3a2063616e206f6e6c792072656e6f756e636520726f6c657320666f722073656c66a26469706673582212209e3fec9f336d29be8c8c509d04d105df1b3052d9c82c862857432c56e2b2585764736f6c63430006060033",
  "devdoc": {
    "methods": {
      "getRoleAdmin(bytes32)": {
        "details": "Returns the admin role that controls `role`. See {grantRole} and {revokeRole}.     * To change a role's admin, use {_setRoleAdmin}."
      },
      "getRoleMember(bytes32,uint256)": {
        "details": "Returns one of the accounts that have `role`. `index` must be a value between 0 and {getRoleMemberCount}, non-inclusive.     * Role bearers are not sorted in any particular way, and their ordering may change at any point.     * WARNING: When using {getRoleMember} and {getRoleMemberCount}, make sure you perform all queries on the same block. See the following https://forum.openzeppelin.com/t/iterating-over-elements-on-enumerableset-in-openzeppelin-contracts/2296[forum post] for more information."
      },
      "getRoleMemberCount(bytes32)": {
        "details": "Returns the number of accounts that have `role`. Can be used together with {getRoleMember} to enumerate all bearers of a role."
      },
      "grantRole(bytes32,address)": {
        "details": "Grants `role` to `account`.     * If `account` had not been already granted `role`, emits a {RoleGranted} event.     * Requirements:     * - the caller must have ``role``'s admin role."
      },
      "hasRole(bytes32,address)": {
        "details": "Returns `true` if `account` has been granted `role`."
      },
      "owner()": {
        "details": "Returns the address of the current owner."
      },
      "renounceOwnership()": {
        "details": "Leaves the contract without owner. It will not be possible to call `onlyOwner` functions anymore. Can only be called by the current owner.     * NOTE: Renouncing ownership will leave the contract without an owner, thereby removing any functionality that is only available to the owner."
      },
      "renounceRole(bytes32,address)": {
        "details": "Revokes `role` from the calling account.     * Roles are often managed via {grantRole} and {revokeRole}: this function's purpose is to provide a mechanism for accounts to lose their privileges if they are compromised (such as when a trusted device is misplaced).     * If the calling account had been granted `role`, emits a {RoleRevoked} event.     * Requirements:     * - the caller must be `account`."
      },
      "revokeRole(bytes32,address)": {
        "details": "Revokes `role` from `account`.     * If `account` had been granted `role`, emits a {RoleRevoked} event.     * Requirements:     * - the caller must have ``role``'s admin role."
      },
      "transferOwnership(address)": {
        "details": "Transfers ownership of the contract to a new account (`newOwner`). Can only be called by the current owner."
      }
    }
  },
  "userdoc": {
    "methods": {}
  },
  "storageLayout": {
    "storage": [
      {
        "astId": 290,
        "contract": "contracts/Swap.sol:TokenineSwap",
        "label": "_owner",
        "offset": 0,
        "slot": "0",
        "type": "t_address"
      },
      {
        "astId": 22,
        "contract": "contracts/Swap.sol:TokenineSwap",
        "label": "_roles",
        "offset": 0,
        "slot": "1",
        "type": "t_mapping(t_bytes32,t_struct(RoleData)18_storage)"
      },
      {
        "astId": 2153,
        "contract": "contracts/Swap.sol:TokenineSwap",
        "label": "tokenA",
        "offset": 0,
        "slot": "2",
        "type": "t_contract(IERC20)1328"
      },
      {
        "astId": 2155,
        "contract": "contracts/Swap.sol:TokenineSwap",
        "label": "tokenB",
        "offset": 0,
        "slot": "3",
        "type": "t_contract(IERC20)1328"
      },
      {
        "astId": 2158,
        "contract": "contracts/Swap.sol:TokenineSwap",
        "label": "rate",
        "offset": 0,
        "slot": "4",
        "type": "t_uint256"
      },
      {
        "astId": 2161,
        "contract": "contracts/Swap.sol:TokenineSwap",
        "label": "feerate",
        "offset": 0,
        "slot": "5",
        "type": "t_uint256"
      },
      {
        "astId": 2163,
        "contract": "contracts/Swap.sol:TokenineSwap",
        "label": "feeTo",
        "offset": 0,
        "slot": "6",
        "type": "t_address"
      },
      {
        "astId": 2165,
        "contract": "contracts/Swap.sol:TokenineSwap",
        "label": "payTo",
        "offset": 0,
        "slot": "7",
        "type": "t_address"
      }
    ],
    "types": {
      "t_address": {
        "encoding": "inplace",
        "label": "address",
        "numberOfBytes": "20"
      },
      "t_array(t_bytes32)dyn_storage": {
        "base": "t_bytes32",
        "encoding": "dynamic_array",
        "label": "bytes32[]",
        "numberOfBytes": "32"
      },
      "t_bytes32": {
        "encoding": "inplace",
        "label": "bytes32",
        "numberOfBytes": "32"
      },
      "t_contract(IERC20)1328": {
        "encoding": "inplace",
        "label": "contract IERC20",
        "numberOfBytes": "20"
      },
      "t_mapping(t_bytes32,t_struct(RoleData)18_storage)": {
        "encoding": "mapping",
        "key": "t_bytes32",
        "label": "mapping(bytes32 => struct AccessControl.RoleData)",
        "numberOfBytes": "32",
        "value": "t_struct(RoleData)18_storage"
      },
      "t_mapping(t_bytes32,t_uint256)": {
        "encoding": "mapping",
        "key": "t_bytes32",
        "label": "mapping(bytes32 => uint256)",
        "numberOfBytes": "32",
        "value": "t_uint256"
      },
      "t_struct(AddressSet)1923_storage": {
        "encoding": "inplace",
        "label": "struct EnumerableSet.AddressSet",
        "members": [
          {
            "astId": 1922,
            "contract": "contracts/Swap.sol:TokenineSwap",
            "label": "_inner",
            "offset": 0,
            "slot": "0",
            "type": "t_struct(Set)1658_storage"
          }
        ],
        "numberOfBytes": "64"
      },
      "t_struct(RoleData)18_storage": {
        "encoding": "inplace",
        "label": "struct AccessControl.RoleData",
        "members": [
          {
            "astId": 15,
            "contract": "contracts/Swap.sol:TokenineSwap",
            "label": "members",
            "offset": 0,
            "slot": "0",
            "type": "t_struct(AddressSet)1923_storage"
          },
          {
            "astId": 17,
            "contract": "contracts/Swap.sol:TokenineSwap",
            "label": "adminRole",
            "offset": 0,
            "slot": "2",
            "type": "t_bytes32"
          }
        ],
        "numberOfBytes": "96"
      },
      "t_struct(Set)1658_storage": {
        "encoding": "inplace",
        "label": "struct EnumerableSet.Set",
        "members": [
          {
            "astId": 1653,
            "contract": "contracts/Swap.sol:TokenineSwap",
            "label": "_values",
            "offset": 0,
            "slot": "0",
            "type": "t_array(t_bytes32)dyn_storage"
          },
          {
            "astId": 1657,
            "contract": "contracts/Swap.sol:TokenineSwap",
            "label": "_indexes",
            "offset": 0,
            "slot": "1",
            "type": "t_mapping(t_bytes32,t_uint256)"
          }
        ],
        "numberOfBytes": "64"
      },
      "t_uint256": {
        "encoding": "inplace",
        "label": "uint256",
        "numberOfBytes": "32"
      }
    }
  }
}