{
  "address": "0xDB6b50A534802AD3708EFF9e0581726270Be914A",
  "abi": [
    {
      "inputs": [
        {
          "internalType": "address",
          "name": "_admin",
          "type": "address"
        }
      ],
      "stateMutability": "nonpayable",
      "type": "constructor"
    },
    {
      "anonymous": false,
      "inputs": [
        {
          "indexed": true,
          "internalType": "address",
          "name": "previousOwner",
          "type": "address"
        },
        {
          "indexed": true,
          "internalType": "address",
          "name": "newOwner",
          "type": "address"
        }
      ],
      "name": "OwnershipTransferred",
      "type": "event"
    },
    {
      "anonymous": false,
      "inputs": [
        {
          "indexed": true,
          "internalType": "bytes32",
          "name": "role",
          "type": "bytes32"
        },
        {
          "indexed": true,
          "internalType": "bytes32",
          "name": "previousAdminRole",
          "type": "bytes32"
        },
        {
          "indexed": true,
          "internalType": "bytes32",
          "name": "newAdminRole",
          "type": "bytes32"
        }
      ],
      "name": "RoleAdminChanged",
      "type": "event"
    },
    {
      "anonymous": false,
      "inputs": [
        {
          "indexed": true,
          "internalType": "bytes32",
          "name": "role",
          "type": "bytes32"
        },
        {
          "indexed": true,
          "internalType": "address",
          "name": "account",
          "type": "address"
        },
        {
          "indexed": true,
          "internalType": "address",
          "name": "sender",
          "type": "address"
        }
      ],
      "name": "RoleGranted",
      "type": "event"
    },
    {
      "anonymous": false,
      "inputs": [
        {
          "indexed": true,
          "internalType": "bytes32",
          "name": "role",
          "type": "bytes32"
        },
        {
          "indexed": true,
          "internalType": "address",
          "name": "account",
          "type": "address"
        },
        {
          "indexed": true,
          "internalType": "address",
          "name": "sender",
          "type": "address"
        }
      ],
      "name": "RoleRevoked",
      "type": "event"
    },
    {
      "inputs": [],
      "name": "ADMIN_ROLE",
      "outputs": [
        {
          "internalType": "bytes32",
          "name": "",
          "type": "bytes32"
        }
      ],
      "stateMutability": "view",
      "type": "function"
    },
    {
      "inputs": [],
      "name": "DEFAULT_ADMIN_ROLE",
      "outputs": [
        {
          "internalType": "bytes32",
          "name": "",
          "type": "bytes32"
        }
      ],
      "stateMutability": "view",
      "type": "function"
    },
    {
      "inputs": [
        {
          "internalType": "bytes32",
          "name": "role",
          "type": "bytes32"
        }
      ],
      "name": "getRoleAdmin",
      "outputs": [
        {
          "internalType": "bytes32",
          "name": "",
          "type": "bytes32"
        }
      ],
      "stateMutability": "view",
      "type": "function"
    },
    {
      "inputs": [
        {
          "internalType": "bytes32",
          "name": "role",
          "type": "bytes32"
        },
        {
          "internalType": "uint256",
          "name": "index",
          "type": "uint256"
        }
      ],
      "name": "getRoleMember",
      "outputs": [
        {
          "internalType": "address",
          "name": "",
          "type": "address"
        }
      ],
      "stateMutability": "view",
      "type": "function"
    },
    {
      "inputs": [
        {
          "internalType": "bytes32",
          "name": "role",
          "type": "bytes32"
        }
      ],
      "name": "getRoleMemberCount",
      "outputs": [
        {
          "internalType": "uint256",
          "name": "",
          "type": "uint256"
        }
      ],
      "stateMutability": "view",
      "type": "function"
    },
    {
      "inputs": [
        {
          "internalType": "bytes32",
          "name": "role",
          "type": "bytes32"
        },
        {
          "internalType": "address",
          "name": "account",
          "type": "address"
        }
      ],
      "name": "grantRole",
      "outputs": [],
      "stateMutability": "nonpayable",
      "type": "function"
    },
    {
      "inputs": [
        {
          "internalType": "bytes32",
          "name": "role",
          "type": "bytes32"
        },
        {
          "internalType": "address",
          "name": "account",
          "type": "address"
        }
      ],
      "name": "hasRole",
      "outputs": [
        {
          "internalType": "bool",
          "name": "",
          "type": "bool"
        }
      ],
      "stateMutability": "view",
      "type": "function"
    },
    {
      "inputs": [],
      "name": "owner",
      "outputs": [
        {
          "internalType": "address",
          "name": "",
          "type": "address"
        }
      ],
      "stateMutability": "view",
      "type": "function"
    },
    {
      "inputs": [],
      "name": "renounceOwnership",
      "outputs": [],
      "stateMutability": "nonpayable",
      "type": "function"
    },
    {
      "inputs": [
        {
          "internalType": "bytes32",
          "name": "role",
          "type": "bytes32"
        },
        {
          "internalType": "address",
          "name": "account",
          "type": "address"
        }
      ],
      "name": "renounceRole",
      "outputs": [],
      "stateMutability": "nonpayable",
      "type": "function"
    },
    {
      "inputs": [
        {
          "internalType": "bytes32",
          "name": "role",
          "type": "bytes32"
        },
        {
          "internalType": "address",
          "name": "account",
          "type": "address"
        }
      ],
      "name": "revokeRole",
      "outputs": [],
      "stateMutability": "nonpayable",
      "type": "function"
    },
    {
      "inputs": [
        {
          "internalType": "uint256",
          "name": "",
          "type": "uint256"
        }
      ],
      "name": "store",
      "outputs": [
        {
          "internalType": "address",
          "name": "",
          "type": "address"
        }
      ],
      "stateMutability": "view",
      "type": "function"
    },
    {
      "inputs": [
        {
          "internalType": "address",
          "name": "newOwner",
          "type": "address"
        }
      ],
      "name": "transferOwnership",
      "outputs": [],
      "stateMutability": "nonpayable",
      "type": "function"
    },
    {
      "inputs": [
        {
          "internalType": "uint256",
          "name": "_storeid",
          "type": "uint256"
        },
        {
          "internalType": "address",
          "name": "_contract",
          "type": "address"
        }
      ],
      "name": "updatestore",
      "outputs": [],
      "stateMutability": "nonpayable",
      "type": "function"
    }
  ],
  "transactionHash": "0x7791dc69e084cf39ae65569fcdd63a2d6dfca461c7a33b6685316cabf3888458",
  "args": [
    "0xBC0EE23C8A355f051a9309bce676F818d35743D1"
  ],
  "solcInputHash": "456921572336c4a8dbab4ae4080754ab",
  "bytecode": "0x608060405234801561001057600080fd5b5060405162000d2038038062000d208339818101604052602081101561003557600080fd5b5051600061004a6001600160e01b036100e016565b600080546001600160a01b0319166001600160a01b0383169081178255604051929350917f8be0079c531659141344cd1fd0a4f28419497f9722a3daafe3b4186f6b6457e0908290a3506100a86000826001600160e01b036100e416565b604080516941444d494e5f524f4c4560b01b8152905190819003600a0190206100da90826001600160e01b036100e416565b5061020b565b3390565b6100f782826001600160e01b036100fb16565b5050565b600082815260016020908152604090912061011f91839061083f610179821b17901c565b156100f7576101356001600160e01b036100e016565b6001600160a01b0316816001600160a01b0316837f2f8788117e7eff1d82e926ec794901d17c78024a50270940304540a733656f0d60405160405180910390a45050565b6000610197836001600160a01b0384166001600160e01b036101a016565b90505b92915050565b60006101b583836001600160e01b036101f316565b6101eb5750815460018181018455600084815260208082209093018490558454848252828601909352604090209190915561019a565b50600061019a565b60009081526001919091016020526040902054151590565b610b05806200021b6000396000f3fe608060405234801561001057600080fd5b50600436106100ea5760003560e01c80639010d07c1161008c578063c75b7d1411610066578063c75b7d1414610234578063ca15c87314610260578063d547741f1461027d578063f2fde38b146102a9576100ea565b80639010d07c146101c957806391d14854146101ec578063a217fddf1461022c576100ea565b80636057361d116100c85780636057361d14610178578063715018a6146101b157806375b238fc146101b95780638da5cb5b146101c1576100ea565b8063248a9ca3146100ef5780632f2ff15d1461011e57806336568abe1461014c575b600080fd5b61010c6004803603602081101561010557600080fd5b50356102cf565b60408051918252519081900360200190f35b61014a6004803603604081101561013457600080fd5b50803590602001356001600160a01b03166102e4565b005b61014a6004803603604081101561016257600080fd5b50803590602001356001600160a01b0316610350565b6101956004803603602081101561018e57600080fd5b50356103b1565b604080516001600160a01b039092168252519081900360200190f35b61014a6103cc565b61010c61048a565b6101956104ac565b610195600480360360408110156101df57600080fd5b50803590602001356104bb565b6102186004803603604081101561020257600080fd5b50803590602001356001600160a01b03166104e2565b604080519115158252519081900360200190f35b61010c610500565b61014a6004803603604081101561024a57600080fd5b50803590602001356001600160a01b0316610505565b61010c6004803603602081101561027657600080fd5b50356105ad565b61014a6004803603604081101561029357600080fd5b50803590602001356001600160a01b03166105c4565b61014a600480360360208110156102bf57600080fd5b50356001600160a01b031661061d565b60009081526001602052604090206002015490565b60008281526001602052604090206002015461030790610302610731565b6104e2565b6103425760405162461bcd60e51b815260040180806020018281038252602f815260200180610a1c602f913960400191505060405180910390fd5b61034c8282610735565b5050565b610358610731565b6001600160a01b0316816001600160a01b0316146103a75760405162461bcd60e51b815260040180806020018281038252602f815260200180610aa1602f913960400191505060405180910390fd5b61034c82826107a4565b6002602052600090815260409020546001600160a01b031681565b6103d4610731565b6001600160a01b03166103e56104ac565b6001600160a01b031614610440576040805162461bcd60e51b815260206004820181905260248201527f4f776e61626c653a2063616c6c6572206973206e6f7420746865206f776e6572604482015290519081900360640190fd5b600080546040516001600160a01b03909116907f8be0079c531659141344cd1fd0a4f28419497f9722a3daafe3b4186f6b6457e0908390a3600080546001600160a01b0319169055565b604080516941444d494e5f524f4c4560b01b8152905190819003600a01902081565b6000546001600160a01b031690565b60008281526001602052604081206104d9908363ffffffff61081316565b90505b92915050565b60008281526001602052604081206104d9908363ffffffff61081f16565b600081565b604080516941444d494e5f524f4c4560b01b8152905190819003600a01902061052e90336104e2565b61057f576040805162461bcd60e51b815260206004820152601d60248201527f43616c6c6572206973206e6f7420612061646d696e6973747261746f72000000604482015290519081900360640190fd5b60009182526002602052604090912080546001600160a01b0319166001600160a01b03909216919091179055565b60008181526001602052604081206104dc90610834565b6000828152600160205260409020600201546105e290610302610731565b6103a75760405162461bcd60e51b8152600401808060200182810382526030815260200180610a716030913960400191505060405180910390fd5b610625610731565b6001600160a01b03166106366104ac565b6001600160a01b031614610691576040805162461bcd60e51b815260206004820181905260248201527f4f776e61626c653a2063616c6c6572206973206e6f7420746865206f776e6572604482015290519081900360640190fd5b6001600160a01b0381166106d65760405162461bcd60e51b8152600401808060200182810382526026815260200180610a4b6026913960400191505060405180910390fd5b600080546040516001600160a01b03808516939216917f8be0079c531659141344cd1fd0a4f28419497f9722a3daafe3b4186f6b6457e091a3600080546001600160a01b0319166001600160a01b0392909216919091179055565b3390565b6000828152600160205260409020610753908263ffffffff61083f16565b1561034c57610760610731565b6001600160a01b0316816001600160a01b0316837f2f8788117e7eff1d82e926ec794901d17c78024a50270940304540a733656f0d60405160405180910390a45050565b60008281526001602052604090206107c2908263ffffffff61085416565b1561034c576107cf610731565b6001600160a01b0316816001600160a01b0316837ff6391f5c32d9c69d2a47ea670b442974b53935d1edc7fd64eb21e047a839171b60405160405180910390a45050565b60006104d98383610869565b60006104d9836001600160a01b0384166108cd565b60006104dc826108e5565b60006104d9836001600160a01b0384166108e9565b60006104d9836001600160a01b038416610933565b815460009082106108ab5760405162461bcd60e51b81526004018080602001828103825260228152602001806109fa6022913960400191505060405180910390fd5b8260000182815481106108ba57fe5b9060005260206000200154905092915050565b60009081526001919091016020526040902054151590565b5490565b60006108f583836108cd565b61092b575081546001818101845560008481526020808220909301849055845484825282860190935260409020919091556104dc565b5060006104dc565b600081815260018301602052604081205480156109ef578354600019808301919081019060009087908390811061096657fe5b906000526020600020015490508087600001848154811061098357fe5b6000918252602080832090910192909255828152600189810190925260409020908401905586548790806109b357fe5b600190038181906000526020600020016000905590558660010160008781526020019081526020016000206000905560019450505050506104dc565b60009150506104dc56fe456e756d657261626c655365743a20696e646578206f7574206f6620626f756e6473416363657373436f6e74726f6c3a2073656e646572206d75737420626520616e2061646d696e20746f206772616e744f776e61626c653a206e6577206f776e657220697320746865207a65726f2061646472657373416363657373436f6e74726f6c3a2073656e646572206d75737420626520616e2061646d696e20746f207265766f6b65416363657373436f6e74726f6c3a2063616e206f6e6c792072656e6f756e636520726f6c657320666f722073656c66a2646970667358221220ea02086bc800aad3145795910995ef2ac78c1baffce7690a7daa3b615882f9cd64736f6c63430006060033",
  "devdoc": {
    "methods": {
      "getRoleAdmin(bytes32)": {
        "details": "Returns the admin role that controls `role`. See {grantRole} and {revokeRole}.     * To change a role's admin, use {_setRoleAdmin}."
      },
      "getRoleMember(bytes32,uint256)": {
        "details": "Returns one of the accounts that have `role`. `index` must be a value between 0 and {getRoleMemberCount}, non-inclusive.     * Role bearers are not sorted in any particular way, and their ordering may change at any point.     * WARNING: When using {getRoleMember} and {getRoleMemberCount}, make sure you perform all queries on the same block. See the following https://forum.openzeppelin.com/t/iterating-over-elements-on-enumerableset-in-openzeppelin-contracts/2296[forum post] for more information."
      },
      "getRoleMemberCount(bytes32)": {
        "details": "Returns the number of accounts that have `role`. Can be used together with {getRoleMember} to enumerate all bearers of a role."
      },
      "grantRole(bytes32,address)": {
        "details": "Grants `role` to `account`.     * If `account` had not been already granted `role`, emits a {RoleGranted} event.     * Requirements:     * - the caller must have ``role``'s admin role."
      },
      "hasRole(bytes32,address)": {
        "details": "Returns `true` if `account` has been granted `role`."
      },
      "owner()": {
        "details": "Returns the address of the current owner."
      },
      "renounceOwnership()": {
        "details": "Leaves the contract without owner. It will not be possible to call `onlyOwner` functions anymore. Can only be called by the current owner.     * NOTE: Renouncing ownership will leave the contract without an owner, thereby removing any functionality that is only available to the owner."
      },
      "renounceRole(bytes32,address)": {
        "details": "Revokes `role` from the calling account.     * Roles are often managed via {grantRole} and {revokeRole}: this function's purpose is to provide a mechanism for accounts to lose their privileges if they are compromised (such as when a trusted device is misplaced).     * If the calling account had been granted `role`, emits a {RoleRevoked} event.     * Requirements:     * - the caller must be `account`."
      },
      "revokeRole(bytes32,address)": {
        "details": "Revokes `role` from `account`.     * If `account` had been granted `role`, emits a {RoleRevoked} event.     * Requirements:     * - the caller must have ``role``'s admin role."
      },
      "transferOwnership(address)": {
        "details": "Transfers ownership of the contract to a new account (`newOwner`). Can only be called by the current owner."
      }
    }
  },
  "userdoc": {
    "methods": {}
  },
  "storageLayout": {
    "storage": [
      {
        "astId": 290,
        "contract": "contracts/StoreID.sol:StoreID",
        "label": "_owner",
        "offset": 0,
        "slot": "0",
        "type": "t_address"
      },
      {
        "astId": 22,
        "contract": "contracts/StoreID.sol:StoreID",
        "label": "_roles",
        "offset": 0,
        "slot": "1",
        "type": "t_mapping(t_bytes32,t_struct(RoleData)18_storage)"
      },
      {
        "astId": 2761,
        "contract": "contracts/StoreID.sol:StoreID",
        "label": "store",
        "offset": 0,
        "slot": "2",
        "type": "t_mapping(t_uint256,t_address)"
      }
    ],
    "types": {
      "t_address": {
        "encoding": "inplace",
        "label": "address",
        "numberOfBytes": "20"
      },
      "t_array(t_bytes32)dyn_storage": {
        "base": "t_bytes32",
        "encoding": "dynamic_array",
        "label": "bytes32[]",
        "numberOfBytes": "32"
      },
      "t_bytes32": {
        "encoding": "inplace",
        "label": "bytes32",
        "numberOfBytes": "32"
      },
      "t_mapping(t_bytes32,t_struct(RoleData)18_storage)": {
        "encoding": "mapping",
        "key": "t_bytes32",
        "label": "mapping(bytes32 => struct AccessControl.RoleData)",
        "numberOfBytes": "32",
        "value": "t_struct(RoleData)18_storage"
      },
      "t_mapping(t_bytes32,t_uint256)": {
        "encoding": "mapping",
        "key": "t_bytes32",
        "label": "mapping(bytes32 => uint256)",
        "numberOfBytes": "32",
        "value": "t_uint256"
      },
      "t_mapping(t_uint256,t_address)": {
        "encoding": "mapping",
        "key": "t_uint256",
        "label": "mapping(uint256 => address)",
        "numberOfBytes": "32",
        "value": "t_address"
      },
      "t_struct(AddressSet)1923_storage": {
        "encoding": "inplace",
        "label": "struct EnumerableSet.AddressSet",
        "members": [
          {
            "astId": 1922,
            "contract": "contracts/StoreID.sol:StoreID",
            "label": "_inner",
            "offset": 0,
            "slot": "0",
            "type": "t_struct(Set)1658_storage"
          }
        ],
        "numberOfBytes": "64"
      },
      "t_struct(RoleData)18_storage": {
        "encoding": "inplace",
        "label": "struct AccessControl.RoleData",
        "members": [
          {
            "astId": 15,
            "contract": "contracts/StoreID.sol:StoreID",
            "label": "members",
            "offset": 0,
            "slot": "0",
            "type": "t_struct(AddressSet)1923_storage"
          },
          {
            "astId": 17,
            "contract": "contracts/StoreID.sol:StoreID",
            "label": "adminRole",
            "offset": 0,
            "slot": "2",
            "type": "t_bytes32"
          }
        ],
        "numberOfBytes": "96"
      },
      "t_struct(Set)1658_storage": {
        "encoding": "inplace",
        "label": "struct EnumerableSet.Set",
        "members": [
          {
            "astId": 1653,
            "contract": "contracts/StoreID.sol:StoreID",
            "label": "_values",
            "offset": 0,
            "slot": "0",
            "type": "t_array(t_bytes32)dyn_storage"
          },
          {
            "astId": 1657,
            "contract": "contracts/StoreID.sol:StoreID",
            "label": "_indexes",
            "offset": 0,
            "slot": "1",
            "type": "t_mapping(t_bytes32,t_uint256)"
          }
        ],
        "numberOfBytes": "64"
      },
      "t_uint256": {
        "encoding": "inplace",
        "label": "uint256",
        "numberOfBytes": "32"
      }
    }
  }
}